:100000000C941B010C944C010C944C010C944C016D
:100010000C944C010C944C010C944C010C944C012C
:100020000C944C010C944C010C944C010C944C011C
:100030000C944C010C944C010C944C010C944C010C
:100040000C944C010C944C010C944C010C944C01FC
:100050000C944C010C944C010C944C010C94550ED6
:100060000C944C010C94C90E0C949F0E0C944C01F2
:100070000C944C010C944C010C944C010C944C01CC
:100080000C944C010C944C010C944C010C944C01BC
:100090000C944C010C944C010C944C010C944C01AC
:1000A0000C944C010C944C010C944C010C944C019C
:1000B0000C944C010C944C010C944C010C944C018C
:1000C0000C944C010C944C010C944C010C944C017C
:1000D0000C944C010C944C010C944C010C944C016C
:1000E0000C944C010C94BC010C94B4010C94D401FC
:1000F0000C94FA110C94C6010C94CA010C94D00112
:100100000C94A4010C94ED020C945A020C94C201BC
:100110000C9495010C9468020C94A0020C94830139
:100120000C940A020C9437020C9446020C94B80109
:100130000C9499010C947E010C949D010C94A101E6
:100140000C94AE010C94AA010000220025002800A6
:100150002B002E00310034000201000005010801CF
:100160000B0105050505070508080808020202023B
:100170000A0A080804040404010101010101010143
:100180000303030303030303040707070C0C0C0C0E
:100190000C0C0C0C020202020606060606060606F7
:1001A0000B0B0B0B0B0B0B0B010210202008081084
:1001B00020401020408002010201080402010102D7
:1001C00004081020408080402010080402018004B0
:1001D000020180402010080402010804020101020B
:1001E0000408102040800102040810204080000014
:1001F0000A0B02090C0D0E080703040100000000A1
:1002000000000000000000000000000000000000EE
:1002100000000000000000000000121110000000AB
:1002200000000000000000000000000000000000CE
:1002300000000000FA1111241FBECFEFDFEFDEBF78
:10024000CDBF00E00CBF14E0A0E0B2E0EAE2F7E2CC
:1002500000E00BBF02C007900D92A634B107D9F79A
:1002600028E0A6E4B4E001C01D92A730B207E1F790
:1002700011E0CBE1D1E000E006C021970109802F19
:10028000FE010E942712CA31D10780E00807A9F7B2
:100290000E94FF0E0C9493130C940000282F30E062
:1002A000F901E251FE4F9491F901E855FE4F449156
:1002B0002E593E4FF9012491222309F435C0992388
:1002C00011F191509231F8F4E92FF0E08827E459C8
:1002D000FE4F8F4F0C9427129D01A1017E019501C5
:1002E00099018301A401AA01AE01B401B801BC01C6
:1002F000C201C6018301CA01D001D40180918000EE
:100300008F7780938000E22FF0E0EE0FFF1FE85B15
:10031000FE4FA591B4918FB7F894EC91611148C04C
:1003200040954E234C938FBF0895809180008F7D20
:10033000E8CF80918000877FE4CF84B58F7784BD3C
:10034000E2CF84B58F7DFBCF8091B0008F77809313
:10035000B000D9CF8091B0008F7DF9CF809190000F
:100360008F7780939000CFCF809190008F7DF9CFD1
:1003700080919000877FF5CF8091A0008F77809348
:10038000A000C1CF8091A0008F7DF9CF8091A00007
:10039000877FF5CF809120018F7780932001B3CFA5
:1003A000809120018F7DF9CF80912001877FF5CF4B
:1003B0004E2BB8CF8230910538F0880F991F880FE7
:1003C000991F05970197F1F708953FB7F894809129
:1003D000FF0790910008A0910108B091020826B58E
:1003E000A89B05C02F3F19F00196A11DB11D3FBF6D
:1003F000BA2FA92F982F8827BC01CD01620F711D3C
:10040000811D911D42E0660F771F881F991F4A9535
:10041000D1F70895AF92BF92CF92DF92EF92FF9201
:100420000F931F93CF93DF936C017B018B01040F1C
:10043000151FEB015E01AE18BF08C017D10759F0B8
:100440006991D601ED91FC910190F081E02DC601FA
:100450001995892B79F7C501DF91CF911F910F91E4
:10046000FF90EF90DF90CF90BF90AF900895FC0188
:10047000538D448D252F30E0842F90E0821B930B09
:10048000541710F0CF96089501970895FC01918DAF
:10049000828D981761F0A28DAE0FBF2FB11D5D96B2
:1004A0008C91928D9F5F9F73928F90E008958FEF54
:1004B0009FEF0895FC01918D828D981731F0828D08
:1004C000E80FF11D858D90E008958FEF9FEF08955F
:1004D000FC01918D228D892F90E0805C9F4F821BC3
:1004E00091098F73992708958DE397E00E94680220
:1004F00021E0892B09F420E0822F0895FC01A48DCE
:10050000A80FB92FB11DA35ABF4F2C91848D90E035
:1005100001968F739927848FA689B7892C93A08918
:10052000B1898C91837080648C93938D848D9813A2
:1005300006C00288F389E02D80818F7D8083089535
:10054000EF92FF920F931F93CF93DF93EC0181E023
:10055000888F9B8D8C8D98131AC0E889F9898081CA
:1005600085FF15C09FB7F894EE89FF896083E889FD
:10057000F98980818370806480839FBF81E090E0EF
:10058000DF91CF911F910F91FF90EF900895F62E7C
:100590000B8D10E00F5F1F4F0F731127E02E8C8D16
:1005A0008E110CC00FB607FCFACFE889F98980815B
:1005B00085FFF5CFCE010E947E02F1CFEB8DEC0FCF
:1005C000FD2FF11DE35AFF4FF0829FB7F8940B8F78
:1005D000EA89FB8980818062CFCFCF93DF93EC01E2
:1005E000888D8823B9F0AA89BB89E889F9898C911B
:1005F00085FD03C0808186FD0DC00FB607FCF7CFD7
:100600008C9185FFF2CF808185FFEDCFCE010E94D6
:100610007E02E9CFDF91CF91089580E090E0892BB1
:1006200029F00E94740281110E94000080E090E095
:10063000892B49F080E090E0892B29F00E9400008E
:1006400081110E94000080E090E0892B49F080E059
:1006500090E0892B29F00E94000081110E94000087
:1006600080E090E0892B49F080E090E0892B29F030
:100670000E94000081110C9400000895880F991FBA
:10068000880F991FFC01EA5FFB4F808191812281D5
:1006900033812332310539F02733310521F02330FE
:1006A000310551F40895FC01228121FF02C0039617
:1006B000089580819181089590E080E008958330CD
:1006C0009105B8F4880F991F880F991FFC01EA5F04
:1006D000FB4F828193818332910541F087339105ED
:1006E00029F0039731F482E090E0089581E090E0F2
:1006F000089590E080E0089520914B04209530E02B
:10070000F901EA5FFC4F908190952A5F3D4FD90136
:100710008C914091490450914A0442505109EBE4B4
:10072000F4E031969F012B5434402417350770F4C0
:1007300020819227292F30E0D901AA5FBC4F9C91DC
:1007400098272A5F3D4FD9018C91EBCF089523E084
:1007500030E030934A0420934904EBE4F4E09091B4
:100760002A07908380588183628308950F931F9393
:10077000582F577001E010E020E030E004C0000F77
:10078000111F221F331F5A95D2F723E096958795A4
:100790002A95E1F79927E0913407F0913507662310
:1007A00021F0E0913A07F0913B07E80FF91F8081B3
:1007B000442329F0082B00831F910F910895009581
:1007C0000823F9CF2F923F924F925F926F927F92C0
:1007D0008F929F92AF92BF92CF92DF92EF92FF9251
:1007E0000F931F93CF93DF93CDB7DEB7C354D109D7
:1007F0000FB6F894DEBF0FBECDBF10E000E0F801E9
:10080000EE0FFF1FE654F94F0190F081E02D309775
:1008100049F041E08081811101C040E060E0C80101
:100820000E94B6030F5F1F4F0833110541F7E09098
:100830002B07F0902C070AE716E019AF08AF8701E5
:10084000005C1F4FF7012AE736E0D9018D919D9199
:100850009D01009729F0DC018D919C91918380830B
:1008600032960E171F0789F7D12CC12CF601EE0F17
:10087000FF1FE65FF94F0190F081E02D309749F0BE
:1008800041E08081811101C040E061E0C6010E9429
:10089000B603BFEFCB1ADB0AE8E3CE16D10431F77B
:1008A0004AEC55E0E0913707F09138079F01205C52
:1008B0003F4FDA018D919D91AD01009729F0DC0148
:1008C0008D919C91918380833296E217F30789F78B
:1008D000E2EAF5E0FBAFEAAFF80108E6E00EF11C52
:1008E00022EA35E0D9018D919D919D01009729F073
:1008F000DC018D919C91918380833296EE15FF05EA
:1009000089F7EAE7F5E0FDAFECAFE0912E07F09153
:100910002F079F01205B3F4F0AE715E0D8018D911B
:100920009D918D01009749F0DC014D915D916D9194
:100930007C91408351836283738334962E173F07E3
:1009400069F7E2E5F5E0FFAFEEAFE0913107F09136
:1009500032079F0120563F4F82E595E0DC01CD90A4
:10096000DD90CD01C114D104F1F0D601EC901196C7
:10097000FC90119712960C91129713961C91139755
:1009800014967C91149715966C91159716965C9118
:10099000169717964C91E082F18202831383748339
:1009A00065835683478338962E173F07B9F6109212
:1009B0004A04109249048091500590915105DC0140
:1009C000ED91FC910084F185E02D1995892B09F4B6
:1009D00083C08091500590915105DC01ED91FC910F
:1009E0000084F185E02D19952091490430914A0445
:1009F000A0915005B0915105ED91FC9111970084A3
:100A0000F185E02D2817390768F4CD0119959093E9
:100A10004A048093490480914D0590914E050E94AF
:100A2000DA01D7CFCD011995813091400CF054C037
:100A30008091500590915105DC01ED91FC9100846D
:100A4000F185E02D199506970CF446C04BE4842EF1
:100A500044E0942E8401E0904904F0904A04C801D7
:100A60008B5494408E159F0578F480915005909199
:100A70005105DC01ED91FC910284F385E02D19957F
:100A8000F80181938F01E7CF10914C048FEB810F18
:100A9000853080F00E947C039701255B3B4FF90174
:100AA0003297408121503109D9012C91342F2817D8
:100AB000390791F490914B0480912A07981709F413
:100AC000CDC08091500590915105DC01ED91FC91D4
:100AD0000680F781E02D1995409134075091350734
:100AE00030E020E0F901EE0FFF1FE654F94F0190CE
:100AF000F081E02D309799F0D90183E0B695A79564
:100B00008A95E1F7A40FB51F8C9190E0622F677072
:100B100002C0959587956A95E2F7817080832F5F73
:100B20003F4F28333105F1F680912B0790912C0728
:100B3000BC01605C7F4FDC01E8ADF9AD21913191E2
:100B4000F9AFE8AF2115310531F04D915C91119766
:100B5000F9015183408312966A177B0769F7FB01FD
:100B600088599F4FAAADBBAD4D915D91BBAFAAAF68
:100B70004115510529F020813181DA012D933C93F3
:100B800032968E179F0771F7E0912E07F0912F078D
:100B9000CF01805B9F4FACADBDAD2D913D91BDAF01
:100BA000ACAF2115310551F04081518162817381D3
:100BB000D9014D935D936D937C93139734968E1763
:100BC0009F0749F7E0913107F0913207CF01805636
:100BD0009F4FAEADBFADED90FD90BFAFAEAFE11496
:100BE000F104F1F0008111817281638154814581AA
:100BF00036812781D7010C9311961C931197129679
:100C00007C93129713966C93139714965C93149796
:100C100015964C93159716963C93169717962C930A
:100C200038968E179F07A9F6CD5BDF4F0FB6F89465
:100C3000DEBF0FBECDBFDF91CF911F910F91FF900F
:100C4000EF90DF90CF90BF90AF909F908F907F906C
:100C50006F905F904F903F902F900895B2E0EB1A05
:100C6000F108F0924A04E092490480914D04909179
:100C70004E04382E292E60904F0470905004762434
:100C800067247624D0904F042091510430E01F3027
:100C900009F48AC5A0F5133009F480C158F4113065
:100CA00009F4F5C3123009F484C461E070E0812FC7
:100CB00090E022C0153009F457C508F40BC5163072
:100CC000A1F720912D078091300790E0880F991FA0
:100CD000E22FF0E08E0F9F1F4091330704E0409F0A
:100CE000A0011124480F591F2416350608F449C0E5
:100CF00062E070E086E090E00E94A7034FC01234EB
:100D000009F41BC798F4103109F462C2113469F672
:100D100084E090E090934A048093490410934C043B
:100D200010924D0483E080934E0438C0143409F4CB
:100D300068C608F4DDC5153409F0B7CF8D3AFEED6D
:100D40009F0709F09FC71092480485E480934C04E4
:100D50008EE780934D0481E2E4E2F4E0DE01119637
:100D600001900D928A95E1F7FE013196AEE4B4E070
:100D700081919D012B543440882309F491C78D93B0
:100D8000F7CF2E163F06D8F4220C331CE0912B0728
:100D9000F0912C07E20DF31D71826082809149046D
:100DA00090914A0402968130914008F45AC580918E
:100DB0004C0464E070E090E00E94A70352C528163E
:100DC0003906F0F5A30170E060E080912E07909164
:100DD0002F0720FC1CC091012E1B3F0BF901EE0FC9
:100DE000FF1FEC7FF370E80FF91F80819181A281D2
:100DF000B381AA27BB27BA0155274427842B952BFB
:100E0000A62BB72B80839183A283B383C7CFE095B2
:100E1000F095E20DF31DEE0FFF1FEC7FF370E80F6E
:100E2000F91F608071808280938066247724462930
:100E30005729682979294083518362837383AECF10
:100E40009101237033274301B12CA12CC12CD12C4B
:100E50007601E0913107F09132072115310549F50E
:100E6000281A390A220C331C38EF232237E03322A8
:100E7000E20DF31D5080618072801381B481A581E1
:100E8000940140E050E060E070E080E090E000E33A
:100E90000E942F1225292083632A6182742A72827C
:100EA000152B1383B62BB483A72BA5838683978337
:100EB00075CF2130310541F54FEF241A340A281A35
:100EC000390A220C331C88EF282287E03822E20DF1
:100ED000F31D5080618072801381B681A7819401D7
:100EE000A501B601C70100E20E942F12522A5082CA
:100EF000632A6182742A7282152B1383648375833B
:100F00008B2B86839A2BD3CF2230310529F5A2E093
:100F10002A0E311C281A390A220C331CB8EF2B2256
:100F2000B7E03B22E20DF31D508061807480158193
:100F3000B681A7819401A501B601C70100E10E9415
:100F40002F12522A5082632A618242835383762A67
:100F50007482172B1583D4CF03E0200E311C281A7E
:100F6000390A220C331C18EF212217E03122E20D3E
:100F7000F31D52814381348125819681878180824E
:100F800091825A2952834B2943833C2934832D294A
:100F900025839E2996838F29878300CFC3010197DC
:100FA00063E070E08D379105C8F46101C60CD71C71
:100FB00040912D07E0913007F0E0EE0FFF1FE40FA6
:100FC000F11D8091330724E0829FC00111248E0F10
:100FD0009F1FC816D90628F062E070E083E090E019
:100FE0008BCE660C771CC301039690934A048093C2
:100FF0004904ABE4B4E011969D012B54344028170A
:10100000390710F41C92F7CF93E090934C0483506F
:1010100080934D04E0903107F0903207A0902E07A6
:10102000B0902F07A0912B07B0912C07BAA7A9A7C2
:10103000A42FB0E0BBABAAAB83E090E02C014E1A2A
:101040005F0A3D0160947094C214D30409F4A6CEE3
:10105000AAA9BBA92A163B0660F49101220F331FEF
:10106000A9A5BAA52A0F3B1FD9018C9111963C91D5
:101070001AC02E163F0670F520FC22C0C101AAA995
:10108000BBA98A1B9B0B880F991F8C7F93708A0DBD
:101090009B1DDC014D915D916D917C91AB016627AB
:1010A0007727842F352FD40113963C9313971496EA
:1010B0008C93B2E08B0E911C0FEF201A300AC4CF34
:1010C0009301220D331D220F331F2C7F33702A0D05
:1010D0003B1DCACF8101037011270115110521F5B0
:1010E00081010E1B1F0B000F111F087F17700E0DC3
:1010F0001F1DD8012C9111963C91119712964C917D
:10110000129713965C91139714966C9114971596F9
:101110007C91159716968C91169717969C9100E3E3
:101120000E944A12822FBFCF0130110511F50E1B0C
:101130001F0B020D131D000F111F087F17700E0DDE
:101140001F1DD8012C9111963C91119712964C912C
:10115000129713965C91139714966C9114971596A9
:101160007C91159716968C91169717969C9100E294
:10117000D7CF0230110511F50E1B1F0B020D131DE9
:10118000000F111F087F17700E0D1F1DD8012C9125
:1011900011963C91119712964C91129713965C916F
:1011A000139714966C91149715967C911597169633
:1011B0008C91169717969C9100E1B2CF9201220D67
:1011C000331D220F331F287F37702E0D3F1D4CCF4C
:1011D000C30101978B37910530F4C301880F991F24
:1011E0002817390729F063E070E080E190E084CDB2
:1011F000D101A60DB71DBDABACAB80912D074090C2
:101200003007512C440C551CA82EB12C4A0C5B1CE9
:1012100020913307B4E02B9F90011124240D351D3C
:10122000ECA9FDA9E217F30718F062E070E0DDCF4A
:1012300026E030E030934A042093490410934C0494
:1012400030924D0420924E0410924F04609250044C
:101250006090310770903207C0902E07D0902F0712
:10126000DFAACEAA40912B0750912C079101220FA3
:10127000331F7A01E20EF31EFBAAEAAAD101A419D8
:10128000B509C50180959095FC01E40DF51D2296E8
:10129000FFAFEEAF22976201CA18DB082496DFAEDB
:1012A000CEAE2497ECA8FDA82E143F0409F4D9C2B1
:1012B000F40147818085542F482F2A143B0488F479
:1012C000EAA9FBA951834083EAA9FBA93296FBABAB
:1012D000EAAB1196FFEF2F1A3F0A02E0800E911C35
:1012E000E1CF24143504C8F570E060E020FC20C094
:1012F0002496EEADFFAD2497EA0FFB1FEE0FFF1F04
:10130000EC7FF370CEA8DFA8EC0DFD1D00811181EC
:101310002281338122273327BA0155274427402BC6
:10132000512B622B732B4083518362837383CCCF09
:101330002296EEADFFAD2297EA0FFB1FEE0FFF1FC7
:10134000EC7FF370EEA8FFA8EE0DFF1D0081118168
:101350002281338100271127E2CFC10183709927B1
:101360006A01F12CE12C00E010E09801C9A6DAA690
:10137000EBA6FCA60DA71EA72FA738ABFD01009773
:1013800041F5EE0FFF1FE87FF770E60DF71DD080E7
:10139000D9AAC180D280E380F480158129A53AA51D
:1013A00040E050E060E070E080E090E000E30E9408
:1013B0002F1209A9202B20833C2931834D294283F8
:1013C0005E295383F62AF482172B1583868397832D
:1013D0007BCF8130910541F53196EE0FFF1FE87FFD
:1013E000F770E60DF71D108119ABC180D280E38044
:1013F000F680178129A53AA540E050E060E070E052
:1014000080E090E000E20E942F1209A9202B2083A7
:101410003C2931834D294283E52AE3826483758325
:101420008F298683912BD3CF029729F53296EE0F21
:10143000FF1FE87FF770E60DF71D108119ABC18023
:10144000D480E580F680178129A53AA540E050E0D8
:1014500060E070E080E090E000E10E942F1209A9B6
:10146000202B20833C29318342835383D62AD48284
:10147000E72AE582D5CF3396EE0FFF1FE87FF7709E
:10148000E60DF71D19A510832AA521831DCFC301E1
:10149000019763E070E0803D974068F52091360742
:1014A000C101860D971D62E070E02817190618F13A
:1014B000C30113E0969587951A95E1F79C012D5F7E
:1014C0003F4F30934A0420934904930127703327F8
:1014D000232B29F0049690934A0480934904809129
:1014E000490490914A04EBE4F4E0813021E0920752
:1014F00028F064E070E081E090E0FECB31969F013F
:101500002B5434402817390710F41082F7CF91E09C
:1015100090934C04835080934D04009134071091B4
:10152000350770E060E020E0C12CD12C7601C39437
:10153000D701C601022E04C0880F991FAA1FBB1F26
:101540000A94D2F789A79AA7ABA7BCA7FB0133E0FF
:10155000F695E7953A95E1F7E25BFB4F3081A10103
:10156000A3E056954795AA95E1F74F715527400F8F
:10157000511FDA014C9150E0B22DB77002C0559561
:101580004795BA95E2F789A540FF0FC0832B80836A
:101590002F5F283009F420E0EFEF2E1A3E0A6F5F2C
:1015A0007F4F6616770621F6F9CB80953823308376
:1015B000EFCFC301019763E070E0803D974068F58D
:1015C00020913C07C101860D971D62E070E028174D
:1015D000190618F1C30123E0969587952A95E1F73E
:1015E0009C012D5F3F4F30934A042093490493019F
:1015F00027703327232B29F0049690934A04809375
:1016000049048091490490914A04EBE4F4E081306C
:1016100001E0900728F064E070E082E090E06CCB9D
:1016200031969F012B5434402817390710F410824B
:10163000F7CF92E090934C04835080934D046091D7
:101640003A0770913B0750E040E010E0C12CD12CEC
:101650007601C394D701C601012E04C0880F991FDB
:10166000AA1FBB1F0A94D2F789A79AA7ABA7BCA74A
:10167000FA01A3E0F695E795AA95E1F7E25BFB4F47
:1016800000819101B3E036952795BA95E1F7260FD1
:10169000372F311DD9012C9130E0B22DB77002C027
:1016A00035952795BA95E2F789A520FF0FC0802BC5
:1016B00080831F5F183009F410E0EFEF2E1A3E0A06
:1016C0004F5F5F4F6416750629F668CB8095082337
:1016D0000083EFCFC301019763E070E08D37910580
:1016E00050F420913907C101860D971D281719065E
:1016F00028F462E070E084E090E0FECAC301880F45
:10170000991F039690934A0480934904EBE4F4E014
:1017100031969F012B5434402817390710F410825A
:10172000F7CF94E090934C04835080934D04220CA7
:10173000331CE0913707F0913807E20DF31D01E00B
:10174000601A710812E0810E911C2FEF621672066A
:1017500009F424CB808191813296D40111969C9317
:10176000119712968C93EBCF6114BFEF7B0629F093
:1017700063E070E06114710449F480913607815090
:10178000990B8215930528F462E070E085E090E003
:10179000B3CA41E06114EFEF7E0609F040E060E07B
:1017A000C1010E94B603FACAA30163E056954795AA
:1017B0006A95E1F7842FB30167707727672B11F0E3
:1017C00081E0840FA30141505109403B574018F478
:1017D0008217130629F063E070E08FE090E08CCA76
:1017E00020913607C101860D971D2817190618F498
:1017F00062E070E0F2CF86E090E090934A0480933C
:1018000049048FE080934C0430924D0420924E04A2
:1018100070924F046092500410E000E0F12CF80147
:1018200083E0F695E7958A95E1F7E55BFB4F478105
:1018300050E00F2C02C0559547950A94E2F741708D
:1018400060E0C101800F911F0E94B603F39498E0FD
:10185000C92EFC1001C0F12C0F5F1F4F60167106DE
:10186000F1F60091490410914A04780122E0E20E59
:10187000F11CF0924A04E09249040E947C03F801B2
:10188000E55BFB4F9083818380914F0587FD09C005
:1018900061E00E944E0180914B0590914C050E94A1
:1018A000DA018091500590915105DC01ED91FC9198
:1018B0000280F381E02DA7016BE474E0199580911B
:1018C000500590915105DC01ED91FC910680F78166
:1018D000E02D199580914B0590914C050E94DA01FD
:1018E00080914F0587FDF8C860E00E944E01F4C862
:1018F00003E02016310408F079C013E0611671048A
:1019000008F074C06214730408F470C0C101880F39
:10191000991F880F991F9C012A5F3B4F7901510144
:10192000B6E58B2EB4E09B2E90E080E0D7011296B6
:101930002D913C912332310509F452C027333105F2
:1019400009F44EC0F2E0CF2ED12C2330310511F036
:10195000D12CC12C8601080F191F9801255F3F4F1C
:101960002130314008F040C0C5010E943E03A6016D
:10197000BC01C4010E948A138C0C9D1C95012F5F31
:101980003F4FE4E0EE0EF11CC8011501621673062C
:1019900028F5C801079690934A048093490483E48C
:1019A00080934C048EE780934D0410924E04209255
:1019B0004F048091ED079091EE072091EF07309151
:1019C000F007309350042093510490935204809375
:1019D00053041093540400935504E0C95901A6CF51
:1019E000CC24C394D12CB6CF8C01D3CF83E090E02C
:1019F00090934A048093490483E480934C0481E8E3
:101A000029C0F5E12F163104E0F48E010F5F1F4F5E
:101A10002801F801B12CA12C12E0810E911C2A148E
:101A20003B04D9F0D40112968C91129713969C9195
:101A300089279827892781939193BFEFAB1ABB0A17
:101A4000EBCF83E090E090934A0480934904109395
:101A50004C0482E880934D04A1C9912C812C20E094
:101A6000712C612C7BE0E72EF12CA814B90409F449
:101A700041C0F201C190D1902F01F3E0CF16D10403
:101A800040F083E090E090934A048093490484E41A
:101A9000B4CFF601EE0FFF1FEE0FFF1FEA5FFB4F03
:101AA000828193818332910511F187339105F9F099
:101AB00002E010E0039711F010E000E01701200EA3
:101AC000311E31E023163306A8F4C6010E943E03FE
:101AD000A801BC01C701855B9B4F0E948A13600E61
:101AE000711E4FEF841A940A2C2D7101BECF01E0B4
:101AF00010E0E4CFF0924A04E092490484E4809339
:101B00004C048EE780934D0410924E0420934F04B2
:101B10008091ED079091EE072091EF073091F0074B
:101B200030935004209351049093520480935304B3
:101B3000709254046092550431C983E02816310430
:101B400050F4809150049091510498278927982748
:101B50008A3F910540F083E090E090934A0480939F
:101B6000490482E44ACF8101000F111F000F111FA9
:101B7000F801EA5FFB4FE280F380809148048130F6
:101B8000D9F0F801EA5FFB4F00811181D11034C018
:101B9000F3E2EF16F10409F471C027E3E216F10451
:101BA00009F46CC033E0E316F104D1F5D8011296C4
:101BB0008C9112978D7F53C090E1E916F10409F3DF
:101BC000C1010E945F039C0136952795FC01E55BEE
:101BD000FB4FABE4B4E03197CD018B5494408217B6
:101BE000930778F617968C911797978117969C9381
:101BF000179787831196EFCFC1010E945F036C0195
:101C0000A3E2EA16F10471F1B7E3EB16F10499F0DF
:101C1000AC0162E574E0C801E3E0EE16F104C1F046
:101C200083E090E090934A048093490482E4809397
:101C30004C048EE70FCFAC0162E574E0F8018081BF
:101C400091810E948A13A60162E574E0C80103969F
:101C50000E948A13D80112968C9112978260129674
:101C60008C93DECFAC0162E574E0C80103960E945C
:101C70008A13F801828182608283D2CFF801828147
:101C80008D7FFACF8E3D9D4A21F481E080934804F8
:101C90005CC883E090E090934A048093490455C85F
:101CA00030934A042093490479C81F920F920FB6CB
:101CB0000F9211242F933F938F939F93AF93BF93D2
:101CC0008091FB079091FC07A091FD07B091FE0762
:101CD0003091FA0723E0230F2D3758F50196A11D07
:101CE000B11D2093FA078093FB079093FC07A09304
:101CF000FD07B093FE078091FF0790910008A09127
:101D00000108B09102080196A11DB11D8093FF0743
:101D100090930008A0930108B0930208BF91AF917F
:101D20009F918F913F912F910F900FBE0F901F9019
:101D3000189526E8230F0296A11DB11DD2CF1F9240
:101D40000F920FB60F9211240BB60F922F933F9361
:101D50004F935F936F937F938F939F93AF93BF93B3
:101D6000EF93FF938DE397E00E947E02FF91EF9146
:101D7000BF91AF919F918F917F916F915F914F91A3
:101D80003F912F910F900BBE0F900FBE0F901F90A1
:101D900018951F920F920FB60F9211240BB60F9247
:101DA0002F938F939F93EF93FF93E0914D07F091C3
:101DB0004E078081E0915307F091540782FD1DC0CA
:101DC0009081809156078F5F8F73209157078217FC
:101DD00041F0E0915607F0E0E35CF84F958F809377
:101DE0005607FF91EF919F918F912F910F900BBE0E
:101DF0000F900FBE0F901F9018958081F2CF7894AE
:101E000084B5826084BD84B5816084BD85B58260FF
:101E100085BD85B5816085BD80916E0081608093B0
:101E20006E00109281008091810082608093810019
:101E30008091810081608093810080918000816029
:101E4000809380008091B10084608093B100809184
:101E5000B00081608093B000809191008260809397
:101E60009100809191008160809391008091900019
:101E70008160809390008091A10082608093A10096
:101E80008091A10081608093A1008091A000816079
:101E90008093A00080912101826080932101809134
:101EA00021018160809321018091200181608093D4
:101EB000200180917A00846080937A0080917A007A
:101EC000826080937A0080917A00816080937A00AA
:101ED00080917A00806880937A001092C1001092FD
:101EE000DB071092DA0727E434E03093DE07209313
:101EF000DD071092470486E494E09093E207809314
:101F0000E1071092460430930B0620930A06909343
:101F1000BB068093BA06E0914D07F0914E0782E030
:101F20008083E0914907F0914A071082E0914B07C6
:101F3000F0914C0780E1808310925507E0915107A2
:101F4000F091520786E08083E0914F07F0915007AF
:101F5000808180618083E0914F07F09150078081FC
:101F600088608083E0914F07F091500780818068FE
:101F70008083E0914F07F091500780818F7D8083AF
:101F80008DE397E090935105809350058FEF8093F8
:101F90004F058EEE92E090934E0580934D0581E4BF
:101FA0009AE090934C0580934B0581E080932A073B
:101FB00084E380932D0784E1809330078093330777
:101FC00088E38093360790E29093390780933C072B
:101FD00087E090E00E946512909335078093340764
:101FE000009709F451C0C7E0FC012C2F11922A95EB
:101FF000E9F788E690E00E94651290932C078093A1
:102000002B07009709F440C028E6FC0111922A959D
:10201000E9F780E590E00E94651290932F07809386
:102020002E07009789F120E5FC0111922A95E9F726
:1020300080EA90E00E946512909332078093310706
:10204000009711F120EAFC0111922A95E9F787E047
:1020500090E00E94651290933B0780933A070097A7
:1020600099F0FC011192CA95E9F780E490E00E9492
:1020700065129093380780933707009729F020E482
:10208000FC0111922A95E9F7D0E0C0E08E01000F23
:10209000111F0654194FF80180819181892B49F451
:1020A00081E090E00E946512F80191838083FC0139
:1020B00010822196C833D10549F7C0912B07D091E2
:1020C0002C07EAE7F6E090E080E021913191232BA4
:1020D00039F4DF0112979E01280F391F2D933C938D
:1020E00002968034910589F710E000E0C801880F5E
:1020F000991F9C01265F394F7901F90180819181F7
:10210000892B49F481E090E00E946512F7019183E8
:102110008083FC0110820F5F1F4F0833110531F7D8
:102120002091370730913807EAECF5E090E080E045
:1021300041915191452B39F4DF011297A901480FC4
:10214000591F4D935C9302968034910589F7E2EA1A
:10215000F5E090E080E0C05CDF4F21913191232BCE
:1021600039F4DF0112979E01280F391F2D933C93FC
:1021700002968832910589F740912E0750912F07DA
:10218000EAE7F5E090E080E021913191232B59F4CA
:10219000DF0112979C01220F331F220F331F240FE0
:1021A000351F2D933C9301968431910569F7409139
:1021B000310750913207E2E5F5E090E080E02191AF
:1021C0003191232B61F4DF0112979C0163E0220F10
:1021D000331F6A95E1F7240F351F2D933C93019629
:1021E0008431910561F780E29EE4A0E0B0E0809345
:1021F000F2079093F307A093F407B093F5070E94BA
:10220000E5016093F6077093F7078093F8079093C2
:10221000F90711E0C1E0D0E00E94E501C090F607A7
:10222000D090F707E090F807F090F9076C197D0956
:102230008E099F09C090F207D090F307E090F40751
:10224000F090F5076C157D058E059F0508F48AC092
:102250008091ED079091EE07A091EF07B091F00704
:102260000196A11DB11D8093ED079093EE07A093F9
:10227000EF07B093F0078091DF0781FF8CC091E0FA
:102280008091E007813009F090E08091E30782704F
:10229000992309F487C0811105C0E091E107F0910D
:1022A000E20710838091DC0781FD04C0D093DB0737
:1022B000C093DA078091E9079091EA07A091EB07B4
:1022C000B091EC07AC01BD01535D6E4C7E4F4115E2
:1022D000FAEC5F07FAE96F07FBE37F0708F06AC0D3
:1022E0004093E9075093EA076093EB077093EC077C
:1022F0000E94E2038091F107811118C01093F10749
:102300000E94E501C090F207D090F307E090F40737
:10231000F090F5076C197D098E099F096093F60707
:102320007093F7078093F8079093F9078091F60769
:102330009091F707A091F807B091F9074091F20743
:102340005091F3076091F4077091F507840F951F82
:10235000A61FB71F8093F6079093F707A093F8077F
:10236000B093F9070E94E501C090F607D090F707F7
:10237000E090F807F090F9076C197D098E099F0924
:10238000603177428105910510F00E94E203889543
:102390000E940D0341CFE091DD07F091DE0791E04F
:1023A000808170CF811186CFE091E107F091E20743
:1023B000108280CF4091E5075091E6076091E707D2
:1023C0007091E8079D59A946BA438093E907909315
:1023D000EA07A093EB07B093EC074F5F5F4F6F4F97
:1023E0007F4F4093E5075093E6076093E7077093AC
:1023F000E8077ECFEDE3F7E01382128288EE93E0E8
:10240000A0E0B0E084839583A683B78386E194E05F
:102410009183808385EC90E09587848784EC90E0BD
:102420009787868780EC90E0918B808B81EC90E0A1
:10243000938B828B82EC90E0958B848B86EC90E082
:10244000978B868B118E128E138E148E0895EE0F3D
:10245000FF1F881F8BBF0790F691E02D1994002E67
:10246000083090F0982F872F762F652F542F432F09
:10247000322F22270850F4CF220F331F441F551F3D
:10248000661F771F881F991F0A95B2F7002D0895C0
:1024900097FD1094002E083098F00850232F342F09
:1024A000452F562F672F782F892F912DF4CF159414
:1024B000979587957795679557954795379527957C
:1024C0000A95AAF71124002D08950F931F93CF9317
:1024D000DF938230910510F482E090E0E0910508EE
:1024E000F091060830E020E0B0E0A0E0309799F4E9
:1024F0002115310509F44AC0281B390B2430310558
:10250000D8F58A819B816115710589F1FB0193835F
:102510008283FE0111C040815181028113814817DD
:102520005907E0F04817590799F4109761F012968F
:102530000C93129713961C933296CF01DF91CF9193
:102540001F910F9108950093050810930608F4CF8A
:102550002115310551F04217530738F0A901DB016D
:102560009A01BD01DF01F801C1CFEF01F9CF9093CE
:10257000060880930508CDCFFE01E20FF31F81937B
:1025800091932250310939832883D7CF20910308B2
:1025900030910408232B41F4209102023091030270
:1025A0003093040820930308209100023091010227
:1025B0002115310541F42DB73EB7409104025091E9
:1025C0000502241B350BE0910308F0910408E21783
:1025D000F307A0F42E1B3F0B2817390778F0AC0146
:1025E0004E5F5F4F2417350748F04E0F5F1F509323
:1025F000040840930308819391939FCFF0E0E0E0BB
:102600009CCFCF93DF930097E9F0FC0132971382C0
:102610001282A0910508B0910608ED0130E020E09B
:102620001097A1F420813181820F931F209103081C
:10263000309104082817390709F061C0F0930408A5
:10264000E0930308DF91CF910895EA01CE17DF07E9
:10265000E8F54A815B819E0141155105B1F7E90119
:10266000FB83EA8349915991C40FD51FEC17FD07ED
:1026700061F4808191810296840F951FE90199830D
:102680008883828193819B838A83F0E0E0E01296C5
:102690008D919C9113970097B9F52D913C911197CD
:1026A000CD010296820F931F2091030830910408F8
:1026B0002817390739F6309751F51092060810920D
:1026C0000508B0930408A0930308BCCFD383C2834A
:1026D00040815181840F951FC817D90761F44E5F5F
:1026E0005F4F88819981480F591F518340838A81A8
:1026F0009B81938382832115310509F0B0CFF0933C
:102700000608E09305089ECFFD01DC01C0CF1382CF
:102710001282D7CFFB01DC0102C001900D92415023
:0A2720005040D8F70895F894FFCF59
:10272A0000000708800000C0C101C30302C2C60638
:10273A0007C705C5C404CC0C0DCD0FCFCE0E0ACAEF
:10274A00CB0BC90908C8D81819D91BDBDA1A1EDE3F
:10275A00DF1FDD1D1CDC14D4D515D71716D6D212EF
:10276A0013D311D1D010F03031F133F3F23236F6FF
:10277A00F737F53534F43CFCFD3DFF3F3EFEFA3AAF
:10278A003BFB39F9F83828E8E929EB2B2AEAEE2E3F
:10279A002FEF2DEDEC2CE42425E527E7E62622E2AF
:1027AA00E323E12120E0A06061A163A3A26266A6FF
:1027BA00A767A56564A46CACAD6DAF6F6EAEAA6A6F
:1027CA006BAB69A9A86878B8B979BB7B7ABABE7EBF
:1027DA007FBF7DBDBC7CB47475B577B7B67672B26F
:1027EA00B373B17170B050909151935352929656FF
:1027FA005797559594549C5C5D9D5F9F9E5E5A9A2F
:10280A009B5B99595898884849894B8B8A4A4E8EBE
:10281A008F4F8D4D4C8C448485458747468682422E
:10282A0043834181804000C1814001C0804101C091
:10283A00804100C1814001C0804100C1814000C186
:10284A00814001C0804101C0804100C1814000C176
:10285A00814001C0804100C1814001C0804101C066
:10286A00804100C1814001C0804100C1814000C156
:10287A00814001C0804100C1814001C0804101C046
:10288A00804100C1814000C1814001C0804101C036
:10289A00804100C1814001C0804100C1814000C126
:1028AA00814001C0804101C0804100C1814000C116
:1028BA00814001C0804100C1814001C0804101C006
:1028CA00804100C1814000C1814001C0804101C0F6
:1028DA00804100C1814001C0804100C1814000C1E6
:1028EA00814001C0804100C1814001C0804101C0D6
:1028FA00804100C1814001C0804100C1814000C1C6
:10290A00814001C0804101C0804100C1814000C1B5
:10291A00814001C0804100C1814001C0804101C0A5
:10292A00804100C18140DA070300DD072300E10787
:10293A00370000000000A0020A023702ED02680216
:10294A0046025A02313230633039326538633634DE
:10295A00306566613733633835363030623337660F
:06296A0066306632000039
:00000001FF
